:030000000203995F
:10000300C00078B10000D8FCD00022C000C0017944
:100013002D78A6D8FED9FADAF6D001D00022D293F1
:10002300120003C29322A2E792B5A2E692B4A2E51C
:1000330092B3A2E492B2120021120003A2E392B59A
:10004300A2E292B4A2E192B3A2E092B21200212200
:10005300D291020029C291020029C293C292743341
:100063001200587433120058743212005874281254
:100073000058740C1200587401120058C0027A021E
:1000830012000ED00222E4936006120053A380F6FE
:100093002244404480020058C0E0E8C4540F443076
:0E00A300120053E8540F4430120053D0E022F4
:1000B100C0E0C0D0C000C001C002E4F53AF53BF594
:1000C1003CF53DF53E7A20E535A2E779047832E644
:1000D10033F608D9FA7905783AE636D4F608D9F92B
:1000E100DAE5D002D001D000D0D0D0E022C0E0C00B
:1000F100D0C000C001C002E4F53AF53BF53CF53D46
:10010100F53E7A20E535A2E779047832E633F60840
:10011100D9FA7905783AC0D0E6243320E70224D011
:1001210020E30224FDD0D033F608D9EADAD6D00292
:10013100D001D000D0D0D0E022C0E0C0D0C000C0FB
:1001410001C0027A207905C3783EE613C0D030E7BA
:100151000224D030E30224FDF618D0D0D9EC790482
:100161007835E613F618D9FADADBD002D001D000DF
:10017100D0D0D0E022C0E0C0D0E5322536F532E55E
:10018100333537F533E5343538F534E5353539F57B
:1001910035D0D0D0E022C0E0C0D0C3E5329536F5ED
:1001A10032E5339537F533E5349538F534E5359552
:1001B10039F535D0D0D0E022C0E0C0D0C3E53295CA
:1001C10036E5339537E5349538E53595399200D0E4
:1001D100D0D0E022C0E0C0D0C3E5369532E53795F6
:1001E10033E5389534E53995359200D0D0D0E02209
:1001F100C0E0C0D0C200C3E53695327014E5379532
:1002010033700EE53895347008E53995357002D2B2
:1002110000D0D0D0E0221201F12000030201D5224A
:100221001201F12000030201B922C0E0C0F0C0D0E8
:10023100C000C001C002C003E5328536F0A4F8A9B0
:10024100F0E5338536F0A429F9E435F0FAE5328595
:1002510037F0A429F9E5F03AFAE433FBE5348536C1
:10026100F0A42AFAE5F03BFBE5338537F0A42AFA3E
:10027100E5F03BFBE5328538F0A42AFAE5F03BFBDB
:10028100E5358536F0A42BFBE5348537F0A42BFB4F
:10029100E5338538F0A42BFBE5328539F0A42BFB3F
:1002A1008B358A3489338832D003D002D001D00013
:1002B100D0D0D0F0D0E022C0E0C0D0C000C001C09A
:1002C10002C003C0047C20E4F8F9FAFBC3E5323331
:1002D100F532E53333F533E53433F534E53533F5CC
:1002E10035E833F8E933F9EA33FAEB33FBC3E89540
:1002F10036E99537EA9538EB95394013E89536F8A4
:10030100E99537F9EA9538FAEB9539FB433201DC87
:10031100BBD004D003D002D001D000D0D0D0E02295
:100321007A5979FA78A6D8FED9FADAF62279DE78FE
:10033100A6D8FED9FA438780759852759B00759AA5
:10034100F4759B1E22D2A2C2A322C0E079007A08D2
:10035100E833F892A1D2A3A2A2E933F9C2A3DAF059
:10036100D0E0223098FDC298E599223099FDC299DA
:10037100F59922E493600612036CA380F622C0E093
:10038100E8C4540F443012036CE8540F4430120394
:100391006CD0E0220A0D200075817F12005D1203EE
:1003A1002E120346C2A0780112034B788012034B30
:1003B100E95403F531785512034B8930D2A0120369
:1003C10021120321853032853133753400753500B2
:1003D10075369A75370175380075390012022B751B
:1003E10036FF7537037538007539001202B8753656
:1003F100117537017538007539001201971200B176
:10040100C000A83B12037FD000C000A83A12037FAE
:0C041100D000900395120374808A80FED6
:00000001FF
